:04000000F3EF12F018
:100600000050617373776F7264204368616E676531
:100610006400202054696D6520202020455620204C
:1006200053500052656E7465722050617373776F1A
:1006300072640050737364204E6F74204D61746354
:100640006800666F72203132307365632E2E2E2063
:1006500000456E7465722050617373776F72640029
:10066000446F776E6C6F6164206C6F677300596FB5
:10067000752061726520626C6F636B004C6F6769F7
:100680006E204661696C656400617474656D707498
:100690002072656D00416C6C206C6F677300436C59
:1006A0006561726564004E6F206C6F6773004D79F1
:0706B000206C6F677300006E
:1006B800146E0C0E1418D8A464EF03F066EF03F060
:1006C8009EEF03F0000E0001CC6F000ECB6F000E02
:1006D800CE6F000ECD6F83EF03F00001CD4BCE2B14
:1006E800500ECD1907E1C30ECE19D8A47EEF03F042
:1006F80080EF03F083EF03F0010ED4EF05F0010E55
:10070800B6EC12F00C0AD8B48CEF03F08EEF03F0BD
:1007180071EF03F0020E5A18D8B495EF03F097EF73
:1007280003F09AEF03F05A2A27EF04F0000E5A6EEE
:1007380027EF04F00B0E1418D8A4A5EF03F0A7EFC9
:1007480003F027EF04F0000E0001CE6F000ECD6F0E
:100758001CEF04F00001CD4BCE2B500ECD1907E154
:10076800C30ECE19D8A4BBEF03F0BDEF03F01CEF06
:1007780004F05EC009F00A6A000E0C6E0A0E0B6ED9
:10078800FAEC10F009C011F00AC012F05EC001F0D6
:10079800026A000E046E0A0E036E98EC10F001381F
:1007A800F00B1110136E13C002F0000ED8EC14F009
:1007B8005CC009F00A6A000E0C6E0A0E0B6EFAECA9
:1007C80010F009C011F00AC012F05CC001F0026A12
:1007D800000E046E0A0E036E98EC10F00138F00B50
:1007E8001110136E13C002F0010ED8EC14F05DC0A6
:1007F80009F00A6A000E0C6E0A0E0B6EFAEC10F085
:1008080009C011F00AC012F05DC001F0026A000EC2
:10081800046E0A0E036E98EC10F00138F00B1110FC
:10082800136E13C002F0020ED8EC14F080EF03F040
:10083800010EB6EC12F00B0AD8B425EF04F027EF3E
:1008480004F0AEEF03F05A50D8A42DEF04F02FEFC8
:1008580004F08FEF04F00B0E1418D8A436EF04F050
:1008680038EF04F044EF04F05E2A3C0E5E18D8A47A
:1008780040EF04F042EF04F044EF04F0000E5E6E27
:100888000001CB4BCC2BCC5107E1960ECB5DD8B0F9
:1008980050EF04F052EF04F05EEF04F0C60E0F6E56
:1008A800200EF4EC14F0C70E0F6E200EF4EC14F0CA
:1008B80056EF05F02C0ECB1906E1CC05D8A467EF4E
:1008C80004F069EF04F06FEF04F0000ECC6F000E37
:1008D800CB6F56EF05F0C60E0F6E5EC001F0026AD0
:1008E800000E046E0A0E036E98EC10F00150300FE3
:1008F800F4EC14F0C70E0F6E5EC009F00A6A000E21
:100908000C6E0A0E0B6EFAEC10F00950300FF4EC76
:1009180014F056EF05F05A04D8A495EF04F097EFB9
:1009280004F0F3EF04F00B0E1418D8A49EEF04F0B3
:10093800A0EF04F0ACEF04F05C2A3C0E5C18D8A4DD
:10094800A8EF04F0AAEF04F0ACEF04F0000E5C6E20
:100958000001CB4BCC2BCC5107E1960ECB5DD8B028
:10096800B8EF04F0BAEF04F0C6EF04F0C30E0F6E50
:10097800200EF4EC14F0C40E0F6E200EF4EC14F0FC
:1009880056EF05F02C0ECB1906E1CC05D8A4CFEF15
:1009980004F0D1EF04F0D3EF04F069EF04F0C30ED4
:1009A8000F6E5CC001F0026A000E046E0A0E036E40
:1009B80098EC10F00150300FF4EC14F0C40E0F6EE8
:1009C8005CC009F00A6A000E0C6E0A0E0B6EFAEC97
:1009D80010F00950300FF4EC14F056EF05F0020E49
:1009E8005A18D8A4FAEF04F0FCEF04F056EF05F01B
:1009F8000B0E1418D8A403EF05F005EF05F011EF5E
:100A080005F05D2A180E5D18D8A40DEF05F00FEF5C
:100A180005F011EF05F0000E5D6E0001CB4BCC2BFD
:100A2800CC5107E1960ECB5DD8B01DEF05F01FEF56
:100A380005F02BEF05F0C00E0F6E200EF4EC14F04D
:100A4800C10E0F6E200EF4EC14F056EF05F02C0ECC
:100A5800CB1906E1CC05D8A434EF05F036EF05F044
:100A680038EF05F069EF04F0C00E0F6E5DC001F0BD
:100A7800026A000E046E0A0E036E98EC10F0015024
:100A8800300FF4EC14F0C10E0F6E5DC009F00A6A65
:100A9800000E0C6E0A0E0B6EFAEC10F00950300FB7
:100AA800F4EC14F0020E5A18D8B45DEF05F05FEFBD
:100AB80005F07DEF05F0C00E0F6E5DC001F0026A13
:100AC800000E046E0A0E036E98EC10F00150300F01
:100AD800F4EC14F0C10E0F6E5DC009F00A6A000E46
:100AE8000C6E0A0E0B6EFAEC10F00950300FF4EC95
:100AF80014F0C20E0F6E3A0EF4EC14F05A04D8B487
:100B080088EF05F08AEF05F0A8EF05F0C30E0F6E29
:100B18005CC001F0026A000E046E0A0E036E98ECC7
:100B280010F00150300FF4EC14F0C40E0F6E5CC0DE
:100B380009F00A6A000E0C6E0A0E0B6EFAEC10F041
:100B48000950300FF4EC14F0C50E0F6E3A0EF4ECA9
:100B580014F05A50D8B4B3EF05F0B5EF05F0D3EF61
:100B680005F0C60E0F6E5EC001F0026A000E046E3C
:100B78000A0E036E98EC10F00150300FF4EC14F0EC
:100B8800C70E0F6E5EC009F00A6A000E0C6E0A0EE0
:100B98000B6EFAEC10F00950300FF4EC14F0070E5D
:100BA80012001850800B256E185018242C6E17AEA2
:100BB800E0EF05F0E2EF05F0E3EF05F02C802C50B4
:100BC800D8B4E9EF05F0EBEF05F000EF06F02C28BC
:100BD800D8A4F1EF05F0F3EF05F0FBEF05F0000EF8
:100BE800156E000E166E000E176E000E186E178E1C
:100BF800000E186E08EF06F0000E156E000E166E49
:100C0800000E176E000E186E1C50800B251A1C5013
:100C18001C242D6E1BAE13EF06F015EF06F016EF31
:100C280006F02D802D50D8B41CEF06F01EEF06F00C
:100C380033EF06F02D28D8A424EF06F026EF06F0AF
:100C48002EEF06F0000E196E000E1A6E000E1B6EC7
:100C5800000E1C6E1B8E000E1C6E3BEF06F0000E85
:100C6800196E000E1A6E000E1B6E000E1C6E1950C7
:100C78001A101B101C10D8A444EF06F046EF06F01B
:100C88005EEF06F0000E156E000E166E000E176E63
:100C9800000E186E800E17127F0E181225501812AB
:100CA80015C015F016C016F017C017F018C018F0C8
:100CB800A1EF07F02C50D8A464EF06F066EF06F019
:100CC80070EF06F0000E156E000E166E000E176E11
:100CD800000E186EA1EF07F02D502CC01DF01E6AF3
:100CE8001D5E000E1E5A7F0E1D24266E000E1E204D
:100CF800276E15C021F016C022F017C023F018C0C7
:100D080024F0000E156E000E166E000E176E000E03
:100D1800186E000E286E000E296E000E2A6E000E48
:100D28002B6E000E2D6ED1EF06F02D50D8B49FEF2C
:100D380006F0A1EF06F0B8EF06F0D890213622367B
:100D480023362436D89015361636173618362BAE75
:100D5800B0EF06F0B2EF06F0B3EF06F01580D890CA
:100D6800283629362A362B361950215C1A50225833
:100D78001B5023581C502458D8A0C5EF06F0C7EFC5
:100D880006F0D0EF06F02B8C1950215E1A50225A2B
:100D98001B50235A1C50245A2D2A190E2D64D7EFA4
:100DA80006F0D9EF06F099EF06F021502210231033
:100DB8002410D8B4E2EF06F0E4EF06F0FCEF06F0FA
:100DC8002880FCEF06F0D8901536163617361836F8
:100DD8002BAEF1EF06F0F3EF06F0F4EF06F0158016
:100DE800D890283629362A362B362606D8A0270644
:100DF80017AE01EF07F003EF07F0E7EF06F0000E7C
:100E08002D6E2BAE0AEF07F00CEF07F030EF07F06E
:100E1800FF0E28141D6EFF0E29141E6EFF0E2A14D5
:100E28001F6E7F0E2B14206E1D501E101F102010D9
:100E3800D8B421EF07F023EF07F027EF07F0010EF2
:100E48002D6E30EF07F015A02CEF07F02EEF07F00E
:100E580030EF07F023EF07F02D50D8B436EF07F046
:100E680038EF07F05CEF07F0010E1526000E16228A
:100E78001722182218A043EF07F045EF07F05CEFA0
:100E880007F015C01DF016C01EF017C01FF018C0DF
:100E980020F0203420321F321E321D321DC015F0C2
:100EA8001EC016F01FC017F020C018F0264A272AC7
:100EB80027BE67EF07F0275008E12628D8A067EF7C
:100EC80007F069EF07F074EF07F0000E276E266849
:100ED800000E156E000E166E000E176E000E186EC0
:100EE80027BE81EF07F0275006E12604D8B07FEF30
:100EF80007F081EF07F08FEF07F0000E276E000E66
:100F0800266E000E156E000E166E000E176E000E81
:100F1800186E000E256E26C02CF02CA096EF07F058
:100F280098EF07F09BEF07F0178E9CEF07F0179EDE
:100F3800D8902C30186E52EF06F01200E7EC14F03F
:100F480021EE55F010EE3AF0170EDBCFE3FFE8067E
:100F5800FCE2000E576E010E556E3A0E0F6E000E33
:100F6800106E000E116E34EC10F0A10E546E300E9F
:100F7800016E54506EEC14F0542AA40E5464C7EF5A
:100F880007F0C9EF07F0BBEF07F0AE0E196E470E7A
:100F98001A6E250E1B6E410E1C6E040EF3EC13F038
:100FA80001C007F002C008F0096A0A6A000E5EEC88
:100FB8000DF007C015F008C016F009C017F00AC0F8
:100FC80018F0D5EC05F015C02EF016C02FF017C09C
:100FD80030F018C031F0DAEC0EF02E50566E020EDA
:100FE800B6EC12F0586E030E536EE80E526E5206AF
:100FF800D8A05306522806E15328D8A406EF08F0D3
:1010080008EF08F0FBEF07F05804D8A40EEF08F03B
:1010180010EF08F026EF08F00A0E5F18D8B417EFA3
:1010280008F019EF08F01AEF08F05F2A070E576E5C
:101038004F0E0F6E000E106E56C011F034EC10F00B
:1010480019EF09F0020E5818D8A42DEF08F02FEF69
:1010580008F051EF08F0060E5718D8B436EF08F02C
:1010680038EF08F051EF08F00A0E5F18D8B43FEFD8
:1010780008F041EF08F042EF08F05F2A572A57506E
:10108800030D3A0EF3240F6E000EF420106E56C0B6
:1010980011F034EC10F019EF09F0030E5818D8A429
:1010A80058EF08F05AEF08F077EF08F05704D8B473
:1010B80060EF08F062EF08F077EF08F05750D8B407
:1010C80068EF08F06AEF08F077EF08F00A0E5F188B
:1010D800D8B471EF08F073EF08F074EF08F05F2AE6
:1010E800570643EF08F00B0E5818D8B47EEF08F0F7
:1010F80080EF08F089EF08F00C0E5818D8A487EF95
:1011080008F089EF08F0A3EF08F05504D8A48FEF92
:1011180008F091EF08F0A3EF08F0000E016E010E41
:1011280051EC14F0040E386E3E0EE82EFED7382E21
:10113800FCD7020E556E000E586E19EF09F019EF24
:1011480009F05750030D3A0EF324116E000EF420E7
:10115800126E56C013F09AEC13F0C9EF07F058500E
:1011680048EC09F0556EC9EF07F0585059EC0CF0EF
:10117800556E070E5518D8A4C4EF08F0C6EF08F04E
:10118800C9EF07F0C4EC14F0C9EF07F0585038EC79
:101198000EF0556EC9EF07F0A6EC11F0010E556E72
:1011A800C9EF07F078EC12F0556EC9EF07F0120E90
:1011B800036E060E046E800E056E64EC13F0575035
:1011C800030D3A0EF324036E000EF420046ECA0ECB
:1011D800056E64EC13F0CE0E0F6E56C001F0026A75
:1011E800000E046E0A0E036E98EC10F00150300FDA
:1011F800F4EC14F0CF0E0F6E56C009F00A6A000E18
:101208000C6E0A0E0B6EFAEC10F00950300FF4EC6D
:1012180014F058505CEC03F0556EC9EF07F05850C5
:10122800D6EC0AF0556EC9EF07F05550386E396A9A
:101238003950000AD8B423EF09F0C9EF07F0385045
:10124800010AD8B4A5EF08F0030AD8B4B3EF08F040
:10125800010AD8B4B9EF08F0070AD8B4CAEF08F001
:10126800010AD8B4D0EF08F0030AD8B4D6EF08F0D2
:10127800010AD8B4DBEF08F00F0AD8B413EF09F06D
:10128800C9EF07F000EF00F01E6E0001E651D8B478
:1012980050EF09F052EF09F0B5EF09F0D42B7D0EAD
:1012A800D46159EF09F05BEF09F063EF09F05B5087
:1012B800C60F0F6E5F0EF4EC14F077EF09F0FA0E1C
:1012C800D419D8A46AEF09F06CEF09F071EF09F0AE
:1012D800000ED46FD52B77EF09F05B50C60F0F6E59
:1012E800200EF4EC14F0510E036E060E046E800E00
:1012F800056E64EC13F00B0E1E18D8A486EF09F0E7
:1013080088EF09F09CEF09F05B50C60F0F6E2A0EAC
:10131800F4EC14F0E00E5B24D96EDA6A000EDA22DF
:10132800300EDF6E5B2A000E0001D56F33EF0AF036
:101338000C0E1E18D8A4A3EF09F0A5EF09F033EF9F
:101348000AF05B50C60F0F6E2A0EF4EC14F0E00E94
:101358005B24D96EDA6A000EDA22310EDF6E96EF60
:1013680009F0000ED56F780E5E6E000E016E010E4C
:1013780051EC14F06E0E036E060E046E800E056EB0
:1013880064EC13F0420E036E060E046EC00E056E7A
:1013980064EC13F023EF0AF0C40E0F6E5EC001F088
:1013A800026A000E046E640E036E98EC10F0015091
:1013B800300FF4EC14F0C50E0F6E000E046E0A0E1A
:1013C800036E5EC001F0026A98EC10F001C009F0EB
:1013D80002C00AF0000E0C6E0A0E0B6EFAEC10F04A
:1013E8000950300FF4EC14F0C60E0F6E5EC009F011
:1013F8000A6A000E0C6E0A0E0B6EFAEC10F0095019
:10140800300FF4EC14F0E00E1A6E930E1B6E040EFF
:101418001C6E000E1D6E1A06000E1B5A1C5A1D5A11
:101428001A280AE11B2808E11C2806E11D28D8A46F
:1014380020EF0AF022EF0AF00FEF0AF05E065E5086
:10144800D8A429EF0AF02BEF0AF0D0EF09F0030E29
:101458000001E66F000E016E010E51EC14F0040E4F
:101468005B18D8A43AEF0AF03CEF0AF0C3EF0AF091
:10147800A10E1F6E5F0E116EFF0E126E1F50136EBF
:10148800146A1150132612501422150E1324D96E03
:10149800000E1420DA6E1F5027EC15F0DF6E1F2A9D
:1014A800A40E1F645AEF0AF05CEF0AF03EEF0AF050
:1014B800000E5B6E010E0001E65FD8B466EF0AF01D
:1014C80068EF0AF0D4EF0AF0150E016E000E026EF6
:1014D800E00E036E000E046E000E066E040E056E1E
:1014E800CDEC0FF001500210D8A47DEF0AF07FEF89
:1014F8000AF094EF0AF0030E0001E66F000E016E89
:10150800010E51EC14F0040E116E3E0EE82EFED7BB
:10151800112EFCD7000E0001D56F030ED5EF0AF08F
:10152800000E016E010E51EC14F07C0E036E060ED7
:10153800046E800E056E64EC13F0C00E0F6E000191
:10154800E651300FF4EC14F0890E036E060E046EAB
:10155800C20E056E64EC13F01A0E126E5E0E116E5A
:101568006E0EE82EFED7112EFCD7122EFAD700D019
:10157800000E016E010E51EC14F0D4EF0AF0050EC6
:101588000001D519D8A4CBEF0AF0CDEF0AF0D4EFBB
:101598000AF0000E5B6E000ED56F010ED5EF0AF053
:1015A800020E1200136E510E036E060E046E800EAC
:1015B800056E64EC13F0040E5960E5EF0AF0E7EFEE
:1015C8000AF072EF0BF00001E551D8B4EEEF0AF023
:1015D800F0EF0AF072EF0BF0C74BC82BC8BF00EF53
:1015E8000BF0C85107E1960EC75DD8B0FEEF0AF0C0
:1015F80000EF0BF008EF0BF05950C60F0F6E5F0E9F
:10160800F4EC14F01FEF0BF02C0EC71906E1C80517
:10161800D8A411EF0BF013EF0BF019EF0BF0000E3D
:10162800C86F000EC76F1FEF0BF05950C60F0F6E33
:10163800200EF4EC14F00B0E1318D8A426EF0BF0C0
:1016480028EF0BF039EF0BF05950C60F0F6E2A0E2A
:10165800F4EC14F0DB0E5924D96EDA6A000EDA22A3
:10166800300EDF6E592A52EF0BF00C0E1318D8A467
:1016780040EF0BF042EF0BF052EF0BF05950C60F52
:101688000F6E2A0EF4EC14F0DB0E5924D96EDA6AC8
:10169800000EDA22310EDF6E36EF0BF0040E591809
:1016A800D8A459EF0BF05BEF0BF057EF0CF0000EDE
:1016B800016E010E51EC14F0040E116E3E0EE82E70
:1016C800FED7112EFCD7000E0001C86F000EC76FA1
:1016D800000E596E000EE56F57EF0CF0040E5960BE
:1016E80078EF0BF07AEF0BF0E5EF0BF00001C74B4A
:1016F800C82BC8BF8BEF0BF0C85107E1960EC75D2A
:10170800D8B089EF0BF08BEF0BF093EF0BF059503B
:10171800C60F0F6E5F0EF4EC14F0AAEF0BF02C0E50
:10172800C71906E1C805D8A49CEF0BF09EEF0BF093
:10173800A4EF0BF0000EC86F000EC76FAAEF0BF0F6
:101748005950C60F0F6E200EF4EC14F0230E036EE2
:10175800060E046E800E056E64EC13F00B0E131863
:10176800D8A4B9EF0BF0BBEF0BF0CCEF0BF059504E
:10177800C60F0F6E2A0EF4EC14F0D60E5924D96E4B
:10178800DA6A000EDA22300EDF6E592A57EF0CF0B3
:101798000C0E1318D8A4D3EF0BF0D5EF0BF057EFBE
:1017A8000CF05950C60F0F6E2A0EF4EC14F0D60E3A
:1017B8005924D96EDA6A000EDA22310EDF6EC9EFCB
:1017C8000BF0000E596E010E0001E56F000E016E60
:1017D800010E51EC14F0040E116E3E0EE82EFED7E9
:1017E800112EFCD7DB0E016E000E026ED60E036EB4
:1017F800000E046E000E066E040E056ECDEC0FF0A2
:1018080001500210D8A40BEF0CF00DEF0CF043EFD1
:101818000CF0010E036E060E046E800E056E64EC6D
:1018280013F0000E156EA10E146E3A0E1424D96E24
:10183800000E1520DA6EDF50016E14506EEC14F0B5
:10184800144A152A15BE32EF0CF0155009E1A50E01
:10185800145CD8A032EF0CF034EF0CF019EF0CF058
:101868000D0E126EAF0E116EB60EE82EFED7112EAB
:10187800FCD7122EFAD700D0010E58EF0CF0330E19
:10188800036E060E046E800E056E64EC13F00D0EEA
:10189800126EAF0E116EB60EE82EFED7112EFCD7C3
:1018A800122EFAD700D0080E12000001B56F21EEF3
:1018B80000F010EE60F0540EDBCFE3FFE806FCE228
:1018C8000001D251D8B46BEF0CF06DEF0CF071EF52
:1018D8000CF0000ED36F000ED26F000ED06F000E0A
:1018E800CF6F0C0EB519D8A47CEF0CF07EEF0CF07E
:1018F800B8EF0CF0A1EF0CF00001CF4BD02B500E3D
:10190800CF1907E1C30ED019D8A48DEF0CF08FEFD3
:101918000CF0A1EF0CF0000E016E010E51EC14F06A
:10192800040E116E3E0EE82EFED7112EFCD7000EC7
:101938000001D36F010E5DEF0DF0010EB6EC12F051
:101948000C0AD8B4AAEF0CF0ACEF0CF080EF0CF056
:10195800040E0001D361B3EF0CF0B5EF0CF0FAEF11
:101968000CF0D32BFAEF0CF00B0EB519D8A4BFEF7F
:101978000CF0C1EF0CF0FAEF0CF0E5EF0CF0000101
:10198800CF4BD02B500ECF1907E1C30ED019D8A4D6
:10199800D0EF0CF0D2EF0CF0E5EF0CF0000E016E7A
:1019A800010E51EC14F0040E116E3E0EE82EFED717
:1019B800112EFCD7010E0001D26FD351040F5DEF39
:1019C8000DF0010EB6EC12F00B0AD8B4EEEF0CF0E5
:1019D800F0EF0CF0C3EF0CF00001D351D8B4F7EFDF
:1019E8000CF0F9EF0CF0FAEF0CF0D307D351D8A4B0
:1019F80000EF0DF002EF0DF02CEF0DF0C00E0F6EA2
:101A0800200EF4EC14F00001D351110D600EF324F4
:101A1800036E000EF420046E830E056E64EC13F062
:101A28000001D351110D110EF326000EF422600EA1
:101A3800F324036E000EF420046EC30E056E64ECEE
:101A480013F0800E0F6E2A0EF4EC14F05CEF0DF01C
:101A5800800E0F6E200EF4EC14F0EF0E116EFF0ED8
:101A6800126E0001D351110DF3CF13F0F4CF14F01F
:101A78001150132612501422600E1324036E000E08
:101A88001420046E830E056E64EC13F00001D3512C
:101A9800110D600EF324036E000EF420046EC30EC5
:101AA800056E64EC13F0C00E0F6E2A0EF4EC14F001
:101AB800030E12000F6E0F50D8B465EF0DF067EFEC
:101AC8000DF089EF0DF00ABE6EEF0DF06CEF0DF022
:101AD80089EF0DF007C00BF008C00CF009C00DF03D
:101AE8000AC00EF00B1E0C1E0D1E0E1E0B2A000E39
:101AF8000C220D220E220BC011F00CC012F00DC0EA
:101B080013F00EC014F091EF0DF007C011F008C0EB
:101B180012F009C013F00AC014F007500810091099
:101B28000A10D8A49AEF0DF09CEF0DF0A6EF0DF077
:101B3800000E076E000E086E000E096E000E0A6E8B
:101B480037EF0EF0960E106EB0EF0DF0102AD89009
:101B58001432133212321132000E11140B6E000EB1
:101B680012140C6E000E13140D6EFE0E14140E6E6D
:101B78000B500C100D100E10D8A4C5EF0DF0C7EFC8
:101B88000DF0AAEF0DF0D5EF0DF0102A010E112679
:101B9800000E122213221422D89014321332123259
:101BA8001132000E11140B6E000E12140C6E000E82
:101BB80013140D6EFF0E14140E6E0B500C100D1036
:101BC8000E10D8A4EAEF0DF0ECEF0DF0C9EF0DF010
:101BD800F4EF0DF01006D89011361236133614367D
:101BE80013BEF9EF0DF0FBEF0DF003EF0EF0020E50
:101BF800106001EF0EF003EF0EF0EEEF0DF010B0F5
:101C080008EF0EF00AEF0EF00BEF0EF0139ED890CF
:101C1800103210C00BF00C6A0D6A0E6A0BC00EF081
:101C28000D6A0C6A0B6A0B5011120C5012120D50EF
:101C380013120E5014120F50D8B425EF0EF027EFE0
:101C48000EF02FEF0EF00ABE2EEF0EF02CEF0EF076
:101C58002FEF0EF0148E11C007F012C008F013C059
:101C680009F014C00AF01200176E0C0E1718D8A449
:101C780040EF0EF042EF0EF081EF0EF0000E000183
:101C8800CA6F000EC96F69EF0EF00001C94BCA2B6D
:101C9800500EC91907E1C30ECA19D8A456EF0EF0A1
:101CA80058EF0EF069EF0EF0000ED16F000E016EC6
:101CB800010E51EC14F0040E066E3E0EE82EFED70F
:101CC800062EFCD7010ED9EF0EF0010EB6EC12F07D
:101CD8000C0AD8B472EF0EF074EF0EF049EF0EF064
:101CE8005F500001D15DD8B07CEF0EF07EEF0EF0B2
:101CF80094EF0EF0D12B94EF0EF00B0E1718D8A41A
:101D080088EF0EF08AEF0EF094EF0EF00001D1513B
:101D1800D8B491EF0EF093EF0EF094EF0EF0D107D8
:101D28005F50D8B49AEF0EF09CEF0EF0D0EF0EF0A3
:101D3800000E196E000E186E070E1824D96E000ECC
:101D48001920DA6E0001D151100DF35018249AECC5
:101D580014F0DF6E184A192A19BEBCEF0EF019509C
:101D680009E1100E185CD8A0BCEF0EF0BEEF0EF023
:101D7800A0EF0EF0AE0E036E060E046E850E056E15
:101D880064EC13F0070E036E000E046EC00E056EB1
:101D980064EC13F0D8EF0EF0A60E036E060E046E78
:101DA800850E056E64EC13F0040E120030343134E5
:101DB800376E3750D8A4E3EF0EF0E5EF0EF0EFEFF3
:101DC8000EF0000E2E6E000E2F6E000E306E000EFE
:101DD800316E5CEF0FF02EC032F02FC033F030C000
:101DE80034F031C035F0200EFFEF0EF0D8903532C8
:101DF800343233323232E82EFAEF0EF03250366E89
:101E0800308EFF0E2E16FF0E2F16FF0E3016000E08
:101E18003116960E375E37BE16EF0FF014EF0FF03F
:101E28002CEF0FF03750800A970FD8B01EEF0FF045
:101E380020EF0FF022EF0FF0E5EF0EF0D8903132DF
:101E480030322F322E32373E22EF0FF044EF0FF0B0
:101E58001F0E376432EF0FF034EF0FF03CEF0FF046
:101E6800E5EF0EF0D8902E362F363036313637065D
:101E78003750D8A442EF0FF044EF0FF036EF0FF0D1
:101E88003650D8B44AEF0FF04CEF0FF054EF0FF084
:101E9800311E301E2F1E2E6C000E2F2230223122B2
:101EA8002EC02EF02FC02FF030C030F031C031F0EE
:101EB8001200020EAFEC14F0086E08380F0B030B7B
:101EC800300F06C0D9FF07C0DAFFDF6E20EE01F041
:101ED8000650D9260750DA22020EAFEC14F00F0B89
:101EE800300FDF6E20EE02F00650D9260750DA22B6
:101EF8003A0EDF6E20EE03F00650D9260750DA229C
:101F0800010EAFEC14F0086E08380F0B070B300FFA
:101F1800DF6E20EE04F00650D9260750DA22010EB3
:101F2800AFEC14F00F0B300FDF6E20EE05F006500B
:101F3800D9260750DA223A0EDF6E20EE06F0065058
:101F4800D9260750DA22000EAFEC14F0086E0838D4
:101F58000F0B070B300FDF6E20EE07F00650D92667
:101F68000750DA22000EAFEC14F00F0B300FDF6EC3
:101F780020EE08F00650D9260750DA22000EDF6E50
:101F880006C003F007C004F0C00E056E64EC13F041
:101F9800120001C009F002C00AF003C00BF004C02F
:101FA8000CF00506D8A00606052806E10628D8A4E0
:101FB800E0EF0FF0E2EF0FF0EFEF0FF0000E026E20
:101FC800000E016E33EF10F0094A0A2A0B4A0C2A58
:101FD8000506D8A0060609C0D9FF0AC0DAFFDF50F7
:101FE800D8B4F9EF0FF0FBEF0FF021EF10F00BC0B2
:101FF800D9FF0CC0DAFFDF50D8B405EF10F007EFB7
:1020080010F021EF10F005500610D8B40EEF10F0C4
:1020180010EF10F021EF10F00BC0D9FF0CC0DAFF61
:1020280009C0E1FF0AC0E2FFDE50E618D8B41FEF8E
:1020380010F021EF10F0E8EF0FF009C0D9FF0AC047
:10204800DAFFDF50076E0BC0D9FF0CC0DAFFDF5094
:10205800086E0850075C016E026AD8A002061200DA
:10206800120E016E000E026EE90E036E000E046E73
:10207800000E066E080E056EF8EC11F0200E1A6EB2
:10208800200E1B6E0FC0D9FF10C0DAFFDF501C6E88
:1020980020EE01F00F50D9261050DA22DF501D6EC5
:1020A800200E1E6E200E1F6E11C001F0026A000E77
:1020B800046E0A0E036E98EC10F00150300F206E7B
:1020C80011C009F00A6A000E0C6E0A0E0B6EFAECCB
:1020D80010F00950300F216E0001E72B0A0EE719A6
:1020E800D8A479EF10F07BEF10F07DEF10F0000E20
:1020F800E76F000E226E120E2224D96EDA6A000EE5
:10210800DA22DF50026E0001E751100DF35022244D
:1021180013EC14F0222A0F0E226495EF10F097EFBB
:1021280010F07FEF10F01200000E066E04BEA1EF53
:1021380010F09FEF10F0A7EF10F0036C041ED8B05A
:10214800042A010E066E02BEAEEF10F0ACEF10F0DE
:10215800B4EF10F0016C021ED8B0022A010E061A64
:10216800000E086E000E076E03500410D8B4BFEFBF
:1021780010F0C1EF10F0E9EF10F0010E056EC9EF95
:1021880010F0D89003360436052A04AECEEF10F0CE
:10219800D0EF10F0C5EF10F0D8900736083603508E
:1021A800015C04500258D8A0DCEF10F0DEEF10F00C
:1021B800E3EF10F00350015E0450025A0780D890F4
:1021C80004320332052ED0EF10F00650D8B4EFEFEA
:1021D80010F0F1EF10F0F5EF10F0076C081ED8B012
:1021E800082A07C001F008C002F01200000E0E6EA7
:1021F8000ABE03EF11F001EF11F009EF11F0096CBD
:102208000A1ED8B00A2A010E0E6E0CBE10EF11F08D
:102218000EEF11F014EF11F00B6C0C1ED8B00C2A55
:102228000B500C10D8B41BEF11F01DEF11F041EF5B
:1022380011F0010E0D6E25EF11F0D8900B360C360B
:102248000D2A0CAE2AEF11F02CEF11F021EF11F04E
:102258000B50095C0C500A58D8A035EF11F037EF35
:1022680011F03BEF11F00B50095E0C500A5AD89050
:102278000C320B320D2E2CEF11F00E50D8B447EF64
:1022880011F049EF11F04DEF11F0096C0A1ED8B0AA
:102298000A2A09C009F00AC00AF01200000E956E59
:1022A8009450F80B946E8290C30E036ECD0EE82EF8
:1022B800FED7032EFCD700F0000E016E330E51EC52
:1022C80014F01B0E036E9E0EE82EFED7032EFCD7CD
:1022D80000D0000E016E330E51EC14F0A60EE82E5D
:1022E800FED700D0000E016E330E51EC14F000D072
:1022F80000D000F0000E016E020E51EC14F0A60E94
:10230800E82EFED700D0000E016E380E51EC14F006
:10231800A60EE82EFED700D0000E016E010E51EC7D
:1023280014F0040E036E3E0EE82EFED7032EFCD7E3
:10233800000E016E0C0E51EC14F0A60EE82EFED71E
:1023480000D01200000E196ECFEF11F020EE08F049
:10235800100EDE6AE806FDE2000E1A6E080E1A2458
:10236800D96EDA6A000EDA221950100DF3501A24C9
:102378009AEC14F0DF6E1A2A0F0E1A64C6EF11F0E9
:10238800C8EF11F0B2EF11F0192A080E026E000E14
:10239800036E33EC14F05F50195CD8A0D6EF11F03F
:1023A800D8EF11F0AAEF11F0600E036E060E046E5E
:1023B800820E056E64EC13F0330E076EBB0E066ECC
:1023C800E00EE82EFED7062EFCD7072EFAD7000E11
:1023D800016E010E51EC14F0040E066E3E0EE82E4E
:1023E800FED7062EFCD7120001C007F002C008F085
:1023F80019EF12F00506D8A0060603C0D9FF04C0DD
:10240800DAFF034A042A07C0E1FF08C0E2FF074ACF
:10241800082ADFCFE7FFE750D8A415EF12F017EF2F
:1024280012F019EF12F02CEF12F005500610D8A494
:1024380020EF12F022EF12F0FEEF11F02CEF12F065
:1024480007C0D9FF08C0DAFF000EDF6E074A082A66
:102458000506D8A00606052806E10628D8A437EF01
:1024680012F039EF12F024EF12F01200819A818CE9
:10247800818E81B242EF12F044EF12F047EF12F072
:10248800010E77EF12F0818A819C818E81B24FEF25
:1024980012F051EF12F054EF12F0020E77EF12F033
:1024A80081B859EF12F05BEF12F05EEF12F00B0EED
:1024B80077EF12F0818A818C819E819E81B267EFCD
:1024C80012F069EF12F06CEF12F0030E77EF12F0D2
:1024D80081B871EF12F073EF12F076EF12F00C0E74
:1024E80077EF12F0FF0E12005F50D8B47EEF12F0B3
:1024F80080EF12F094EF12F0000E5F6E950E036EEF
:10250800060E046E850E056E64EC13F09E0E036EC7
:10251800060E046EC60E056E64EC13F09CEF12F006
:10252800A60E036E060E046E850E056E64EC13F09F
:102538001A0E076E5E0E066E6E0EE82EFED7062E7B
:10254800FCD7072EFAD700D0000E016E010E51EC11
:1025580014F0040E066E3E0EE82EFED7062EFCD7AB
:10256800010E1200016E3AEC12F0026E020E011812
:10257800D8A4C1EF12F0C3EF12F0E6EF12F0022870
:10258800D8B4C9EF12F0CBEF12F0D9EF12F0000176
:10259800E851D8B4D2EF12F0D4EF12F0D9EF12F01C
:1025A800000EE86F0250F2EF12F00228D8A4DFEF15
:1025B80012F0E1EF12F0F1EF12F0010E0001E86FF6
:1025C800F1EF12F00104D8A4ECEF12F0EEEF12F0E4
:1025D800F1EF12F00250F2EF12F0FF0E12005A0E55
:1025E800F66E260EF76E000EF86E01EE00F010EE95
:1025F8006DF00900F5CFEEFFE550E150FAE15E0E0F
:10260800F66E2A0EF76E000EF86E00EEE5F010EE8C
:102618000DF00900F5CFEEFFE550E150FAE1B60EF6
:10262800F66E2A0EF76E000EF86E0900F5CF5FF011
:1026380000EEB6F02F0EEE6AE806FDE15E6A5D6A0E
:102648005C6A5B6A5A6A596A000EF86E0001A2EF6A
:1026580007F056696577204C6F672020202000001E
:10266800000000446F776E6C6F6164204C6F6720C8
:1026780000000000436C656172206C6F67202020A9
:1026880020000000007365742074696D65202020A7
:102698002000000000006368616E67652070617348
:1026A800736420000000004F4E00475200474E0060
:0F26B800473100473200473300473400432000CA
:1026C800000E016E055051EC14F081EF13F0010E6D
:1026D800016E03C0F6FF04C0F7FFF86A050EF76441
:1026E80003D00800F55005D0F6CFE9FFF7CFEAFF91
:1026F800EF5051EC14F0034A042A03C0F6FF04C05B
:10270800F7FFF86A050EF76403D00800F55005D006
:10271800F6CFE9FFF7CFEAFFEF500009D8A497EF0B
:1027280013F099EF13F06BEF13F01200120E036E13
:10273800060E046E800E056E64EC13F0E90E066E4C
:10274800000E076E5DEC0FF011C003F012C004F02C
:10275800CA0E056E64EC13F0CE0E0F6E13C001F0B6
:10276800026A000E046E0A0E036E98EC10F0015017
:10277800300FF4EC14F0CF0E0F6E13C009F00A6A94
:10278800000E0C6E0A0E0B6EFAEC10F00950300FAA
:10279800F4EC14F01200000EAFEC14F0046E0450C8
:1027A8008009026E000ED8EC14F0020EAFEC14F0A3
:1027B800046E04504009026E020ED8EC14F0930E19
:1027C800026E070ED8EC14F0000EAFEC14F0046E95
:1027D80004507F0B026E000ED8EC14F01200066E47
:1027E80006C003F0D8900336D8900336C250C30B06
:1027F8000310C26EC282C2B204EF14F006EF14F0E6
:10280800FFEF13F0C4CF03F0030E03160350056E59
:10281800046AC3500410016E0550026E1200056E62
:102828004CEC15F0A00E3CEC15F005503CEC15F006
:1028380002503CEC15F048EC15F00B0E046EB80E87
:10284800036E0306D8A00406032806E10428D8A4CA
:1028580030EF14F032EF14F025EF14F012003EEFD1
:1028680014F002C0D9FF03C0DAFFDF500BEC15F0FB
:10287800024A032A02C0D9FF03C0DAFFDF50D8A4F6
:1028880048EF14F04AEF14F035EF14F00A0E0BEC91
:1028980015F00D0E0BEC15F01200026E01B057EF9B
:1028A80014F05AEF14F082825BEF14F0829202C0A7
:1028B80083FF82848294958E82808292828482941D
:1028C80083BE69EF14F06BEF14F062EF14F082909E
:1028D800959E1200026E02C0A9FF01C0A8FFA69E25
:1028E800A69CA684F29E550EA76EAA0EA76EA68277
:1028F800F28EA6B282EF14F084EF14F07DEF14F09C
:102908001200948E949CAC9CAC8AAC98AC96AC8427
:10291800AB8EAB9CAB88B89EB896B892B890810E37
:10292800AF6E9D889E989D8A9E9A1200026E4CEC0E
:1029380015F0A00E3CEC15F002503CEC15F050ECF4
:1029480015F0A10E3CEC15F042EC15F0036E48ECC6
:1029580015F003501200026E4CEC15F0D00E3CEC52
:1029680015F002503CEC15F050EC15F0D10E3CEC93
:1029780015F042EC15F0036E48EC15F00350120008
:102988000001E9510A0DF350EA25F00F5D6EEC5194
:102998000A0DF350ED25F00F5C6EEF510A0DF35060
:1029A800F025F00F5E6E1200036E4CEC15F0D00EA1
:1029B8003CEC15F003503CEC15F002503CEC15F0E3
:1029C80048EC15F0120085EC14F052EC11F01FECF5
:1029D80015F036EC15F000EC15F0CFEC13F0120002
:1029E800106E000E016E0F5051EC14F0010E016EC6
:1029F800105051EC14F0120094869488280EC66E7C
:102A0800310EC86EC79CC78E9E96A1961200016EA5
:102A18009EA811EF15F013EF15F00CEF15F001C09B
:102A2800ADFF12009EA61BEF15F01DEF15F016EF77
:102A380015F09E9612000F0EC16E1E0E936EF19E3B
:102A4800E00E81121200016E01C0A9FFA69EA69C8D
:102A5800A680A85012000103FF0130303A30303A06
:032A68003030000B
:102A6C00C2800A0EC16E940EC06E1200016E01C0BF
:102A7C00C9FF16EC15F0120054EC15F058EC15F0DB
:102A8C00C9501200C58416EC15F01200C58016EC66
:102A9C0015F01200C58216EC15F01200C58616EC66
:0B2AAC0015F01200C58AC58812000159
:020000040020DA
:08000000FFFFFFFFFFFFFFFF00
:020000040030CA
:0E000000FF071F1FFF8285FF0FC00FE00F409C
:00000001FF
